:1000000012C0E6C018C18FC183C128C027C026C056
:1000100066C124C023C022C021C020C01FC01EC092
:100020001DC01CC01BC011241FBECFE5D4E0DEBF25
:10003000CDBF10E0A0E6B0E0E6E4FAE002C0059033
:100040000D92AC37B107D9F720E0ACE7B0E001C0C2
:100050001D92AC39B207E1F771D1F3C4D1CFCF9281
:10006000DF92EF92FF920F931F93CF93DF93282F8E
:10007000332727FD3095261B310967FD33956091A5
:10008000610070916200269F8001279F100D369FAE
:10009000100D112480917E0090917F00080F191F90
:1000A00010937F0000937E0080917C0090917D00F2
:1000B000A901481B590BCA0153D4EB0130937D00B1
:1000C00020937C003323F4F1B901882777FD8095D4
:1000D000982F57D3209167003091680040916900B4
:1000E00050916A00DAD36B017C01B801882777FD53
:1000F0008095982F46D320918700309188004091B9
:10010000890050918A00C9D39B01AC01C701B60197
:10011000A1D26B017C01BE01882777FD8095982FC5
:1001200030D320918300309184004091850050911C
:100130008600B3D39B01AC01C701B6018BD2EED2CE
:10014000CB013DC0B901882777FD8095982F19D341
:1001500020916300309164004091650050916600E9
:100160009CD36B017C01B801882777FD8095982F7F
:1001700008D32091870030918800409189005091E8
:100180008A008BD39B01AC01C701B60163D26B011E
:100190007C01BE01882777FD8095982FF2D22091AF
:1001A000830030918400409185005091860075D382
:1001B0009B01AC01C701B6014DD2B0D2CB01DF919A
:1001C000CF911F910F91FF90EF90DF90CF90089506
:1001D0001F920F920FB60F9211248F939F93979AAD
:1001E000969880918C00811114C080918B00813091
:1001F00081F48CB59DB59093900080938F001DBCC9
:100200001CBC81E080938C0010928B0010928D00BA
:100210000BC01092900010928F001DBC1CBC81E09E
:1002200080938C0010928B009F918F910F900FBE46
:100230000F901F9018951F920F920FB60F921124D6
:100240002F933F934F935F936F937F938F939F93DE
:10025000AF93BF93EF93FF93969A80918C00813078
:1002600079F480918B00813059F08CB59DB59093D5
:1002700092008093910010928C0081E080938B001B
:1002800020918F003091900025363105A8F040E094
:1002900050E060ED72E183E190E0ABD3C901880FDB
:1002A000991F280F391FC901880F991F880F991F9F
:1002B000909394008093930096989798FF91EF9174
:1002C000BF91AF919F918F917F916F915F914F916E
:1002D0003F912F910F900FBE0F901F9018951F9276
:1002E0000F920FB60F9211248F9380918D0084315D
:1002F00018F4865F80938D0010929B0010929A00F4
:10030000969897988F910F900FBE0F901F90189509
:100310001F920F920FB60F921124A99A0F900FBE41
:100320000F901F9018951F920F920FB60F921124E5
:10033000A9980F900FBE0F901F90189518BA8FEFC5
:1003400087BB84BB15BA11BA82BB85B78F6085BFE6
:100350008BB7806C8BBF1FBC87E085BD8AE083BDF7
:1003600083E08EBD89B7846C89BF789480EE81BBB1
:1003700012BA0F2EF8E68F2E99249394F02DCEE624
:10038000D0E00F2EFDE6CF2EF0E0DF2EF02D0F2E69
:10039000FCE6EF2EF0E0FF2EF02D0F2EFAE06F2E90
:1003A000712CF02D0F2EF6EF4F2EF9E05F2EF02D71
:1003B0006894332436F840918F0050919000411595
:1003C000510509F450C010928D00809191009091D8
:1003D00092009A01281B390BA0E1BEE026D39A01B6
:1003E00040E050E0E4D22B5F3F4FADECBCEC1DD3BE
:1003F00096958795969587959695879590939B006A
:1004000080939A00853B910558F09401281B390B85
:1004100030939B0020939A0081E080938E0002C06D
:1004200010928E0020919A0030919B00809198004C
:1004300090919900820F931F909399008093980058
:10044000209195002F5F20939500223061F49695BE
:100450008795909397008093960010929900109240
:100460009800109295001092820010918D00133028
:1004700018F08BE0888361C0E0919600F0919700BE
:100480009F01ADECBCECD1D2AC0156954795569589
:100490004795569547959A01220F331FCA01880F39
:1004A000991F880F991F880F991F820F931FDF01D3
:1004B000A81BB90BA8839A01ADECBCECB6D29695FB
:1004C000879596958795969587959C01220F331F62
:1004D000880F991F880F991F880F991F820F931FEC
:1004E000481B590BD6014C939F013695279536959D
:1004F0002795ABE7B4E199D2AC01569547959A019F
:10050000ADECBCEC92D2969587959695879596958D
:1005100087959C01220F331F880F991F880F991F01
:10052000880F991F820F931F481B590BF7014083B7
:1005300080918E00ABE6B0E08C93209193003091D7
:10054000940036952795329522952F7023273F707A
:100550002327AEE3BAE069D2885F8093600015304C
:1005600008F06EC090918E00992371F0A0908000E9
:10057000B0908100E6E9F0E0608171DDA81AB90A67
:10058000B0928100A09280008091800090918100C3
:1005900099232CF4109281001092800007C0873FAD
:1005A000994024F050928100409280008091800018
:1005B00090918100B301E8D163BD42C09F5F85B3D4
:1005C0008C6385BB8FEF890F813081F028F08230FA
:1005D000B1F08330E9F02AC0AA98ABE6B0E08C9184
:1005E000813011F438BA2EC018BA2CC0AB98D7019C
:1005F000EC91F0E0E159FF4F808188BB23C0AC98BB
:10060000D601EC91F0E0E159FF4F808188BB1AC020
:10061000AD98E881F0E0E159FF4F808188BBEFE3BE
:10062000FFE13197F1F700C00000C5CEAFE3BFE1B5
:100630001197F1F700C00000943008F4BFCFBBCE93
:1006400091E0BDCFEFE3FFE13197F1F700C000008B
:10065000B5CF5058BB27AA270ED0E5C0D6D030F072
:10066000DBD020F031F49F3F11F41EF4CBC00EF428
:10067000E095E7FBC1C0E92FE7D080F3BA17620726
:1006800073078407950718F071F49EF5FFC00EF408
:10069000E0950B2EBA2FA02D0B01B90190010C0192
:1006A000CA01A0011124FF27591B99F0593F50F4AA
:1006B000503E68F11A16F040A22F232F342F442702
:1006C000585FF3CF469537952795A795F0405395FA
:1006D000C9F77EF41F16BA0B620B730B840BBAF0CA
:1006E0009150A1F0FF0FBB1F661F771F881FC2F735
:1006F0000EC0BA0F621F731F841F48F48795779549
:100700006795B795F7959E3F08F0B3CF9395880FFF
:1007100008F09927EE0F97958795089504D068946F
:10072000B111B5C0089598D088F09F5790F0B92FB7
:100730009927B751A0F0D1F0660F771F881F991F36
:100740001AF0BA95C9F712C0B13081F09FD0B1E06C
:1007500008959CC0672F782F8827B85F39F0B93F7C
:10076000CCF3869577956795B395D9F73EF4909538
:100770008095709561957F4F8F4F9F4F0895E894B6
:1007800009C097FB3EF490958095709561957F4FD9
:100790008F4F9F4F9923A9F0F92F96E9BB27939587
:1007A000F695879577956795B795F111F8CFFAF497
:1007B000BB0F11F460FF1BC06F5F7F4F8F4F9F4FC8
:1007C00016C0882311F096E911C0772321F09EE826
:1007D000872F762F05C0662371F096E8862F70E08C
:1007E00060E02AF09A95660F771F881FDAF7880F66
:1007F0009695879597F9089597F99F6780E870E037
:1008000060E008959FEF80EC089500240A94161686
:10081000170618060906089500240A9412161306EE
:10082000140605060895092E0394000C11F488237C
:1008300052F0BB0F40F4BF2B11F460FF04C06F5F98
:100840007F4F8F4F9F4F089557FD9058440F551F6E
:1008500059F05F3F71F04795880F97FB991F61F042
:100860009F3F79F087950895121613061406551FB9
:10087000F2CF4695F1DF08C0161617061806991F25
:10088000F1CF86957105610508940895E894BB271A
:1008900066277727CB0197F908950BD0C4CFB5DF32
:1008A00028F0BADF18F0952309F0A6CFABCF1124BA
:1008B000EECFCADFA0F3959FD1F3950F50E0551FFF
:1008C000629FF001729FBB27F00DB11D639FAA27A5
:1008D000F00DB11DAA1F649F6627B00DA11D661FF4
:1008E000829F2227B00DA11D621F739FB00DA11D15
:1008F000621F839FA00D611D221F749F3327A00DCF
:10090000611D231F849F600D211D822F762F6A2F6A
:1009100011249F5750408AF0E1F088234AF0EE0FEF
:10092000FF1FBB1F661F771F881F91505040A9F7FC
:100930009E3F510570F060CFAACF5F3FECF3983E29
:10094000DCF3869577956795B795F795E7959F5F63
:10095000C1F7FE2B880F911D9695879597F90895FD
:10096000AA1BBB1B51E107C0AA1FBB1FA617B707D5
:1009700010F0A61BB70B881F991F5A95A9F78095F1
:100980009095BC01CD01089597FB072E16F40094B5
:1009900006D077FD08D0E4DF07FC05D03EF4909543
:1009A00081959F4F0895709561957F4F0895A1E2BD
:1009B0001A2EAA1BBB1BFD010DC0AA1FBB1FEE1FD9
:1009C000FF1FA217B307E407F50720F0A21BB30B24
:1009D000E40BF50B661F771F881F991F1A9469F7A0
:1009E00060957095809590959B01AC01BD01CF01FC
:1009F0000895052E97FB16F400940FD057FD05D0EF
:100A0000D6DF07FC02D046F408C0509540953095DB
:100A100021953F4F4F4F5F4F08959095809570956A
:100A200061957F4F8F4F9F4F0895A29FB001B39F55
:100A3000C001A39F01D0B29F700D811D1124911D93
:060A40000895F894FFCFB9
:100A46000810270000803F000080400A0B0005FCCC
:0C0A560060DAF266B6BEE0FEF6000200B8
:00000001FF
